:1000000000800010C5000000DD000000DF000000DF
:10001000E1000000E3000000E5000000BE79FFEF12
:10002000000000000000000000000000F9E60000F1
:10003000FBE6000000000000FDE60000FFE6000017
:1000400001E7000001E7000001E7000001E7000010
:1000500001E70000FDE40000FFE4000001E700000C
:1000600001E7000001E7000001E7000001E70000F0
:1000700001E7000001E7000001E7000001E70000E0
:1000800001E7000001E7000001E7000001E70000D0
:1000900001E7000001E7000001E7000001E70000C0
:1000A00099DF000001E7000001E7000001E7000020
:1000B00001E7000001E7000001E7000001E70000A0
:1000C00001E7000003488047034880470148004794
:1000D000FEE70000D1CB0000C9D30000FEE7FEE739
:1000E000FEE7FEE7FEE7C046024BDA680260D86032
:1000F000002070479C080010024BDA681268DA6032
:10010000704700BF9C080010C460056146618761AC
:10011000C0F81C80C0F82090C0F824A0C0F828B017
:10012000C0F82CD0C0F808E0FFF7DEBF0D4A08B5D4
:10013000D3680BB90CF094FD19685860D16018466B
:10014000C468056946698769D0F81C80D0F820909A
:10015000D0F824A0D0F828B0D0F82CD0D0F808E0FF
:10016000012070479C08001010B50021044600F0E3
:100170001DFA18B914B1204605F0FEFA10BD002191
:1001800000F014BAFFF7F0BF10B501220C4600F0E2
:10019000DFFA18B914B1204605F0EEFA10BD00F0F0
:1001A000D7BA00F0A3BA00002DE9F04300254FF0C4
:1001B00003092A4C0021D4F89870013143189A0899
:1001C000BA5C03F003035B0042FA03F303F003039A
:1001D000022BF2D0D4F8A03009018A0803EB0010FA
:1001E00019B3034600EB820053F8042B11071AD110
:1001F000D4F8A0108A4216D3511AD4F8A4604FEA5A
:10020000111E0EF00307B2424FEA91114FEA470761
:1002100009D2D4F898C01CF8018048FA07F202F01D
:100220000302012A08D09842DED1ADB1013D04EBB2
:100230008503D3F8AC00BDE709FA07F747EA0807DA
:100240000CF801703F2D04EB85019ABFC1F8ACE0BA
:100250000135C4F8A820E6E7BDE8F0839C0800104B
:10026000F8B50F4A21F00F052B1AA2FB03230D4C02
:100270009B09A5EB83171A460021C4F89C30C4F8EB
:100280009800C4F8A450C4F8A0700EF0B7F900228A
:100290004FF48033C4F8B021C4F8AC31F8BD00BFCE
:1002A000FDC00FFC9C080010034AB2F8AC310133CA
:1002B000A2F8AC31704700BF9C080010034AB2F8A6
:1002C000AC31013BA2F8AC31704700BF9C08001074
:1002D000034BB3F8AC01003018BF0120704700BFDA
:1002E0009C0800101D4B00212DE9F0411D464FF0E8
:1002F00003081C46B3F8AC21C3F8A8100132A3F8D8
:10030000AC2103F1840654F8043F1A0719D1D5F83B
:10031000A020934215D39A1AD5F8A470100900F0C2
:100320000301BB424FEA92124FEA410109D2D5F8CC
:1003300098E01EF802C04CFA01F303F00303012B0E
:1003400003D0A642DFD1BDE8F08108FA01F141EA0D
:100350000C030EF80230FFF727FFF2E79C080010AD
:1003600099B32DE9F8430E4600244FF00308174FC8
:10037000051F55F8043F01341A0719D1D7F8A020FA
:10038000934215D39A1A10094FEA9219D7F8A4206C
:1003900000F0030193424FEA410109D2D7F898E0F7
:1003A0001EF809C04CFA01F303F00303012B03D03C
:1003B000A642DED1BDE8F88308FA01F141EA0C0358
:1003C0000EF80930FFF7F0FEF2E770479C080010C6
:1003D0002DE9F041354E0025D6F89C10D6F8A8300E
:1003E00089000BB3C6F8A850002949D0002402E0C8
:1003F00001348C4214D2D6F89820A308D35C04F0C0
:1004000003025200134103F00303032BF0D12046F3
:10041000FFF7CAFED6F89C10013489008C42EAD35B
:10042000D6F8A830002BDDD151B398464FF0030E1B
:100430001846022706E0032A2CD0012A13D00130E7
:1004400088421DD2D6F89850840815F804C000F0F0
:1004500003035B004CFA03F202F00302022AEAD122
:10046000B8F1000FEBD00EFA03F32CEA03032B557F
:10047000D6F89C100130890088424FF00108E1D382
:100480000022B6F8AC31C6F8B021013BA6F8AC3179
:10049000BDE8F08107FA03F32CEA03032B55D6F8E5
:1004A0009C104FF000088900C9E700BF9C080010AD
:1004B00000233D4A2DE9F047D2F8A410D2F8A0401D
:1004C000D2F89C60091BD2F8987001601D469C46CA
:1004D0009E461C461A46994619469846B600436001
:1004E0008360C36003614361836117F80930490089
:1004F0000B4103F00303012B30D027D3022B02D191
:100500000135456001340132B2420ED04FEA920902
:1005100017F8093002F003014FEA410A43FA0AF3DF
:1005200013F0030301D0012BDFD1012C1AD0022CD0
:100530002BD081698C4288BF8461B2421BD0012BD1
:1005400027D04FEA920902F00301CEE70CF1010C2B
:10055000C0F808C00EF1010E1C46D4E70135456015
:100560001C46D0E701690131016181698C4288BF75
:100570008461B242E3D1C6450ED9B242C0F80CE064
:100580000AD0F0464FF0000EDBE7416901314161CE
:10059000CFE7F045F6D2F0E72D014FEA0C134560A6
:1005A0008360BDE8F08700BF9C0800100F30F8B5ED
:1005B000050953D04C4CB4F8AC31002B4ED1B4F8F3
:1005C000AEE1D4F8B011BEFA8EFED4F89C604FEACA
:1005D0005E1EB14235D2D4F898700023781817E027
:1005E00001339D423DD912F00C0F1BD101339D42C6
:1005F00070D912F0300F1AD101339D426DD912F02B
:10060000C00F19D101339D426AD90131B14218D2CC
:1006100010F8012B12F0030FE2D012F00C0F4FF084
:100620000003E3D012F0300F4FF00003E4D012F0DB
:10063000C00F4FF00003E5D00131B1424FF000038D
:10064000E6D3BEF1000F09D10CF0F0FAD4F8B011E6
:10065000D4F89C604FF0010EB142BCD30024204678
:10066000F8BD89000125CA1A012B01F1010C02F124
:10067000010004BF4FEA9C03C4F8B031860800F0C3
:10068000030317F806E0AB4005FA03F3023243EA2E
:100690000E039142BB5528BF4FF0020E0DD3D4F884
:1006A0009860950802F00303775D5B000EFA03F390
:1006B00001323B4391427355F1D2D4F8A040ACEBE8
:1006C000000204EB00141201204600210DF096FFF9
:1006D0002046F8BD89000131C4E789000231C1E735
:1006E00089000331BEE700BF9C080010F0B4174E2C
:1006F000B6F8AC313BBB30B30327D6F8A030D6F800
:10070000B021C01A83099342D6F898404FEA1010DE
:1007100038BFC6F8B031E15C850800EA07035B002A
:1007200007FA03F321EA030363550130D6F8984032
:100730008508615D00F003035A0041FA02F202F0FD
:100740000302022AEBD0F0BC704700BF9C080010E7
:100750002DE9F0478E46002800F0E680754C002910
:1007600052D0B4F8AC51002D51D1D4F8A060D4F8D7
:100770009C30861B3609711C4FEA83080EF10F0767
:100780008845AC464FEA17174FF0010515D9D4F844
:1007900098908B0819F8033001F0030A4FEA4A0ACF
:1007A00043FA0AF303F00303022B34D02BB90CF104
:1007B000010C0CEB05039F422ED8AF424DD02FD336
:1007C000AC446745804674D872193E44964288BF4F
:1007D0004FF0020C0FD9D4F89800910802F00303EF
:1007E00010F801E05B000CFA03F3013243EA0E0358
:1007F00096424354EFD17A1B120108EB05100021F9
:1008000046460DF0FBFE03E0B4F8AC314BB30026D6
:100810003046BDE8F087013501318845B9D1CCE7D4
:1008200006EB070C62464FF0030E3544D4F89810DF
:10083000970802F00303CE5D5B000EFA03F301326A
:1008400026EA0303AA42CB55F0D1D4F8B0314FEADF
:100850009C079F4238BFC4F8B07106463046BDE8D9
:10086000F0870327D4F8A010D4F8B021401A8309E8
:100870009342D4F898504FEA101038BFC4F8B03102
:10088000E95C860800EA07035B0007FA03F321EA44
:100890000303AB550130D4F898508608A95D00F0E9
:1008A00003035A0041FA02F202F00302022AEBD0DB
:1008B000ADE7002AABD070460021FFF777FE064671
:1008C0000028A4D02A0141460DF05AFEB4F8AC31FC
:1008D000002B9DD14FF0030ED4F8A020D4F8B01116
:1008E000A8EB020293098B42D4F898504FEA1212F7
:1008F00038BFC4F8B031E85C970802EA0E035B0029
:100900000EFA03F320EA0303EB550132D4F89850B2
:100910009708E85D02F00303590040FA01F101F085
:1009200003010229EBD073E701467046BDE8F047AA
:10093000FFF73CBE9C08001030B58BB003A8FFF752
:10094000B7FD0A4C0599049B039A0091204608497B
:1009500000F044FD0999069D089B8DE82200079A46
:100960002046044900F03AFD0BB030BDDCF5000034
:1009700004E7000028E70000054B1B695A68824223
:1009800004D8801A043053F8200070471B68F5E73C
:100990009C08001041F205530144884204D313F02F
:1009A000FF0008BF0120704710F8012B03EB431331
:1009B0005340F2E7034B044A1A610022C3F888202F
:1009C000704700BF9C080010901C01002DE9F84FF3
:1009D00082468946FFF7DEFF8346134B1C6914B934
:1009E0002046BDE8F88F04F110073D46E66807EBA6
:1009F0008606B54201D32468F1E7A84658F8040BEF
:100A000003789B450ED1437899450BD14A46514610
:100A100002300DF013FE28B96068ED1B00EBA50055
:100A2000BDE8F88F4546E4E79C0800102DE9F04743
:100A300081460E46FFF7CAFF024600287ED1FF2EF0
:100A400003D94049404804F0B4FD404CF51CD4F8AB
:100A50008800A0B1D4F89030D4F88C102B448B428D
:100A60000DD92944FFF79BFB0746F0B90246D4F89D
:100A70009010D4F88800FFF792FBC4F88870D4F87F
:100A80008830F3B9802D2F4638BF80273846FFF7CE
:100A900076FBC4F8880078B92846FFF770FBC4F8E5
:100AA000880040B9284604F067FED4F88C302B4407
:100AB000C4F88C30E3E72F460023C4F88C70C4F8E8
:100AC0009030D4F89080314645444846C4F8905060
:100AD000FFF760FFD4F888A032460AEB08070AF84F
:100AE00008004FF000087E704946B81C3E440DF0E7
:100AF00047FD86F8028023699D68DB68AB4213D30B
:100B00006D000A2D38BF0A25281D8000FFF737FB2E
:100B10000028C7D0226953680260D26885601344F8
:100B20004360C0F80C8020612369D9685A68481C6A
:100B3000013A0431D860024443F821701046BDE800
:100B4000F08700BFACED0000080801009C08001011
:100B500008B5FFF711FF007808BD08B5FFF70CFFD7
:100B6000407808BD08B5FFF707FF023008BD08B59B
:100B7000FFF702FF437802300B6008BDF0B5002399
:100B800020251A4E01310A780AB90270F0BD12060A
:100B900022D50BB10570013033460A7802F07F028E
:100BA0006AB90446013B13F8012F601C12F0800F54
:100BB0000ED0012302F07F0222700131E3E71C46D0
:100BC00094F900700133002FF9DA013AD2B2E7E765
:100BD000044600F8012CE6E7012B08BF05700B78EE
:100BE00008BF0130037001300223E6E773E700001D
:100BF00038B5446803680C449C42054610D9037B11
:100C0000DB0703D50021074804F0D3FC103424F09F
:100C10000704083421468068FFF7B6FA2C60A86004
:100C200038BD00BF0808010070B5044615460E46E1
:100C30001146FFF7DDFFA06863682A463146184475
:100C40000DF0C6FC62682A44626070BD70B54668EB
:100C500004468E42354628BF0D460121FFF7C8FFE6
:100C6000A368681C5919721B18440DF0B1FC636825
:100C7000A06801336360284470BD38B50446002580
:100C8000002914BF0846012065602060FFF76CFA58
:100C9000237BA06065F30003237338BD38B5054698
:100CA0000C460131FFF7E9FF6C6038BD002343605B
:100CB000037B016043F0010382600373704700000F
:100CC00038B514460546FFF7D8FF024B2560636030
:100CD00038BD00BF290C0000037B10B5DB070446BC
:100CE00002D48068FFF75DFA0023A36010BD000006
:100CF00038B5037B0446DB070D4603D500210748C2
:100D000004F057FC016880682944FFF73DFA236826
:100D1000A0601D442560184438BD00BF08080100CC
:100D200038B504460D46FFF763FF6368A0681D44AD
:100D30006560184438BD90E80C009A4210B504462E
:100D400002D10121FFF7D4FF0021A2686368D154CA
:100D5000A06810BD10B50C460121FFF7E1FF04703B
:100D600010BDC9B2FFF7F6BF38B5054608460C46B8
:100D70000DF076FC214602462846BDE83840FFF7D4
:100D800053BF10B51446FFF761FF047010BD10B5D6
:100D90001446FFF75BFF047010BD43688B4234BFFD
:100DA00000235B1A4360704738B515464268044615
:100DB0008A420B460ED929448A4201D8436038BD85
:100DC0008068D21A521B014418440DF001FC62687D
:100DD000521B626038BD084611460BF09DBF70B5CE
:100DE000054608460E460DF03BFC044620B102467F
:100DF0006B68314628689847204670BD2DE9F74F4B
:100E0000914601919DF830100D9A11F0DF0F0646C2
:100E1000A2EB09023DD030290CA9244F0EBF4FF0A0
:100E200010080F464FF0010813F0800435D002245B
:100E300092FBF4F4151B002C36DDA246D045C346C8
:100E4000A8BFD34673685A4639463068AAEB0B0AE6
:100E50009847BAF1000FF1DCB9F1000F05D07368C3
:100E60004A460199306898474C44002D0DDD2C44CA
:100E7000A845C146A8BFA94673684A4639463068A6
:100E8000A5EB09059847002DF2DC204603B0BDE82C
:100E9000F08F074F4FF01008C6E713F0010501D19E
:100EA0001446C8E71546D7E70024D5E700F600004A
:100EB000EFF500002DE9F04389B00746119D9DF83C
:100EC0004880139E42BB00228DF80F2051BB302377
:100ED00008AC04F8013D15F040099DF80F303FD0F3
:100EE000002B46D00122CDF8008001922B460DF157
:100EF0000F013846FFF782FF8146013E08AA01969E
:100F0000CDF800802B46121B21463846FFF776FFAE
:100F1000484409B0BDE8F083002919DA2D2249427E
:100F20008DF80F20109A08ACA2F10A0E0DF1100CEA
:100F3000B1FBF3F003FB1012092ACCBF724430322C
:100F400004F8012D64450146C5D00028F0D1C2E760
:100F5000A80701D52B22B7E76A07B4D52022B3E74B
:100F6000002BCBD004AA9442C8D904F8013C013C20
:100F7000C4E79946C2E700002DE9F04F11F0010FD8
:100F800091B08246884691461A9D9DF86CB01C9F90
:100F90001D9E0ED111F0030F03D10A6882498A42C7
:100FA00007D04046059305F07DFB059B400040F0CF
:100FB000010815F0810206D1BBF1300F03D1B74211
:100FC000B8BF374616464046059306F05AFE00283D
:100FD00008A9059B17DBAC0711D52B228DF8202023
:100FE0000DF12104EA061CD5B9F1020F0DD1302014
:100FF000224602F8020B581C6070144611E0680784
:1010000001D52022EAE70C46ECE7B9F1080F3ED102
:101010003022A805227045BF03F10E026270013430
:1010200002340022611A15F0200F0CA805910990D6
:101030000CBF11462C211020012EC8BF45F04005E1
:101040002270DBB215F040040A900B928DF81F203D
:101050000391029325D00192CDF8009043460BAA4C
:101060000AA909A806F076FD037881462D2B72D1D6
:101070000B9C012E04F1FF3400F101098DF81F30A3
:101080000B9400F38D804FF00008444617E0B9F14F
:10109000100FC6D13020224602F8020B03F11700D0
:1010A000AAE708AB0193CDF8009043460BAA0AA922
:1010B00009A806F04FFD012E814647DCA0466906CF
:1010C0001BD59DF81F3053B10122002301920093DC
:1010D0000DF11F015046FFF791FE013F0444059BAF
:1010E0005BB1012301930023059A009308A95046A0
:1010F000FFF784FE059B0444FF1A012EC8BF374644
:10110000CDF800B001972B460B9A49465046FFF7A1
:1011100075FE0444B8F1000F0AD020230093002389
:10112000CDF804801A4621495046FFF767FE044473
:1011300009980CAB984201D0FFF733F8204611B064
:10114000BDE8F08F4FF00008444619E00B9CB44214
:10115000B8BF34460BE0012E95DD0B9C9DF81F3087
:10116000B442B8BF344603B10134059B1C44A742C6
:10117000E8DD15F00108A7EB040401D0A046002427
:1011800025F001054CB120230093002301941A4659
:1011900006495046FFF732FE04464FF0300B8EE70B
:1011A000B442B8BF3446DFE7F40C0100C31C0100B1
:1011B0002DE9F04F80461746002489B00D462B4696
:1011C00013F8012BD2B9A94208D26E1AD8F804300C
:1011D0003246D8F800009847294634440B78002B53
:1011E00000F0F4804FF020094FF0000B01310E7831
:1011F0000D464B1C36B94FF0FF3345E0252AE2D0AF
:101200001D46DCE72D2E03D14BF0010B1946EEE70E
:101210002B2E02D14BF0020BF8E7202E02D14BF01F
:10122000040BF3E7212E02D14BF0080BEEE7302E32
:101230001DD000264FF00A0E0D4611F8013BA3F118
:101240003000092817D92E2BD5D16B782A2B16D030
:1012500000234FF00A0C0D4611F8010BA0F1300EDF
:10126000BEF1090F10D80CFB0303303BF3E74BF042
:10127000400BB146CAE70EFB0636303EDCE73B6862
:10128000023523EAE373043729786C2908BF013556
:101290002978002900F09A8064297CD01FD8582929
:1012A0003DD00CD8502900F08680D8F804300122B7
:1012B0002946D8F8000098470134BA4650E0622920
:1012C00040D06329F1D13B6808A901F8043D07F13A
:1012D000040A0196CDF800905B4601223CE0732998
:1012E00045D018D8702966D07129DED107A9386891
:1012F0000593FFF73CFC059B0146581C07F1040AC7
:1013000003D00798834238BF07930196CDF8009029
:101310005B46079A20E0752901D07829C5D14B1C7E
:1013200021F00F010F3903F00603C9B207F1040AD7
:101330000396CDF80890CDF804B00091C3F11003E6
:10134000002233E03B6807F1040A0196CDF80090D3
:101350004BB15B4604221F494046FFF74FFD044452
:10136000691C57462AE75B4605221B49F4E707F14B
:10137000040A3F68059338460DF072F9059B5A1C24
:1013800002D0984228BF18460196CDF800905B46DF
:1013900002463946E0E76123012200930A2307F160
:1013A000040A0396CDF80890CDF804B03968404699
:1013B000FFF780FDD3E7612307F1040A009303964A
:1013C000CDF80890CDF804B01023B9E7204609B055
:1013D000BDE8F08FE4F50000E9F500000EB403B5B8
:1013E00003AA52F8041B0192FFF7E2FE02B05DF877
:1013F00004EB03B0704700007F289DBF024B185CD0
:10140000C0F340000020704711F600007F289DBF08
:10141000024B185CC0F3C0000020704711F60000BA
:101420007F289DBF024B185CC0F3800000207047EE
:1014300011F600007F289DBF024B185CC0F380109E
:101440000020704711F600007F2809D8064B1B5C6E
:1014500013F00C0F06D1A0F15F03584258417047BA
:10146000002070470120704711F600007F289DBFC3
:10147000024B185CC0F300100020704711F600000A
:101480007F289DBF024B185CC0F3401000207047BE
:1014900011F6000008B50246FFF7E8FF00B1203260
:1014A000104608BD08B50246FFF7EAFF00B1203A32
:1014B000104608BD3038092884BF20F020000738C6
:1014C00070478368C26893423DBF5A1C8260187897
:1014D0004FF0FF307047036810B5044613B1406801
:1014E000FEF75FFE2046BDE81040FEF75ABE000042
:1014F000F8B5054610200C461F461646FEF734FE8A
:10150000054B4460846034440760C4606B60034BE7
:101510002860AB60F8BD00BFC3140000D714000002
:101520000369272B1ED0222B1CD0752B03D023F050
:101530001002622A04D14269272A13D0222A11D02C
:10154000722B11D14369622B10D18069272809D0F1
:10155000A0F122035842584100F00100704743694E
:10156000722BF1E70120F7E7622BF8D00020F3E7B8
:10157000036910B50A2B044622D1C3690133C36144
:1015800001232362636960682361A3696361A368BF
:1015900098476369A0610D2B07D10A2398426361C4
:1015A00003D1A36860689847A061A369013306D19D
:1015B00063695A1C03D00A2B1CBF0A23A36110BD08
:1015C000092B036A04BF073323F007030133D8E76D
:1015D00070B504460E4600252069431C01D12846FB
:1015E00070BD0A2808D116B1A36A002BF7D0204697
:1015F000FFF7BEFF0125EFE7FFF7FEFE18B120461B
:10160000FFF7B6FFE8E72369232B08D12046FFF751
:10161000AFFF23695A1CDFD00A2BF7D1DCE75C2B24
:10162000DDD163690A2BDAD12046FFF7A1FFE6E797
:101630002DE9F74F002104468164FFF7C9FFE369F4
:10164000256AA363636AE563002B04DA062284F843
:101650004020013304E007D00522013B84F84020FC
:10166000636203B0BDE8F08F002832D0A36A83BB69
:10167000042384F840306FF00043226B606BD11874
:1016800030F81110013D8D42EBD017D9E16A8A4242
:1016900007D308314900FEF777FDE36A606308333A
:1016A000E362236B626B591C216322F81350636A57
:1016B000CFE7013A2263626A013A6262226BD11873
:1016C00030F811108D42F4D3CBD0022384F840308F
:1016D000C7E721694A1C01D10023F7E72046FFF73D
:1016E0001FFF8246002800F00E81002384F840305E
:1016F0002369752B5AD0622B4DD16369722B0CBFB5
:10170000022501254FF00B030CBFD0464FF0000817
:1017100094F84020002A52D184F840303DB1204650
:10172000FFF726FF022D02D12046FFF721FF236994
:101730002046222B0CBF4FF022094FF02709FFF75C
:1017400017FF23694B453DD1636999453AD120463E
:10175000FFF70EFF2046FFF70BFF0327002504F1DC
:1017600044062169481C00F0C880012F02D10A29D3
:1017700000F0C380BD4227D3294604F14400FFF79F
:101780000CFB01212046FFF723FF2046FFF7C8FE90
:101790000028ADD165E7722B0DD16369D046622B6D
:1017A0000BBF022501250B230A23B1E701250A23DC
:1017B0004FF00008ACE700250A23A846A8E79342AB
:1017C000ACD04EE70127C9E7894508D149463046E4
:1017D0000135FFF7C6FA2046FFF7CAFEC1E75C29CC
:1017E00040F0898020460191FFF7C2FE25690199EA
:1017F000B8F1000F03D03046FFF7B3FA5AE0622D7C
:1018000000F093812ED84E2D70D01BD8222D3ED0C3
:10181000272D3CD00A2D55D0A5F13002072A68D8D3
:10182000032315466269303A072A43D8013B41D069
:1018300020460193FFF79CFE2269019B303A02EBA0
:10184000C505EFE75C2D22D0612D00F07481552D88
:10185000E2D194F840300B2B22D15C213046FFF7C7
:1018600080FA14E0742D00F0628107D86E2D0DD03F
:10187000722D13D0662DCFD10C2508E0762D0BD01C
:10188000E7D3782DC8D14FF0020B0FE00A25E9B25B
:101890003046FFF75FFA15E00B25F8E70D25F6E770
:1018A000752D14BF4FF0080B4FF0040B00251BF1F2
:1018B000FF3B09D26B1C05D0FF2DE8D94FF0010387
:1018C00084F84030002586E72046FFF751FE226964
:1018D00010460192FFF7AEFD002800F02081019A2A
:1018E0002D011046FFF7E6FD0544E0E7934804F0BC
:1018F000A1FC5C217FE7C9B2CAE7BD423CBF03231C
:1019000084F8403038E70846FFF780FD0546206937
:101910001DB95F2801D07F283ED9072304F1440573
:1019200084F84030C1B22846FFF714FA2046FFF78A
:101930001FFE2069421C1BD12846FFF7FCF9002539
:1019400006467F4F57F8251030460CF091FE0028D0
:101950001CD10D35EDB2102D84F840507FF481AECE
:10196000784BD3F89430002B14BF0D230F23ADE632
:10197000FFF74CFD40B920695F2805D07F2803D8C8
:10198000FFF74EFD0028D7D0217CCCE7FFF669AEEB
:101990000135222DD6D164E6FFF742FDA8B92369AF
:1019A0002E2B0DD00026684D2F7817B12369BB422E
:1019B00063D12046FFF7DCFD002F66D1012385E6C9
:1019C0006069FFF72DFD0028ECD021692E2929D16F
:1019D000092384F8403004F144063046FFF7C1F98A
:1019E0002046FFF7C5FD09272069431C3FF439AEA7
:1019F00055BB652801D0452826D16521304684F89D
:101A00004070FFF7AEF92046FFF7B2FD21692B29A0
:101A100001D02D29E8D13046FFF7A3F92046FFF782
:101A2000A7FDE1E70823302984F84030D3D163696A
:101A300043F02003623B162B9EBF444DDD4005F072
:101A4000010505F00105C6E7FFF7E0FC28B12169B3
:101A50002E290DD184F84070DDE72069FFF7E0FC06
:101A60000028F4D123692E2BF1D05F2BD6D0F8E5D6
:101A700021F020034A2BCED1ECE7652F01D0632F54
:101A800000D10135013601358EE7212F07D12369B9
:101A90003D2B93D12046FFF76BFD362316E62E2F04
:101AA0000DD123692E2B44D163692E2B41D12046C1
:101AB000FFF75EFD2046FFF75BFD0C2306E633468D
:101AC000033515F8027C632F0FD0652F0DD0204A07
:101AD000D35C03F0FD02512A84F8403001D0552B2D
:101AE00013D1A36A0133A362BBE515F8012C216968
:101AF0000136914207D12046FFF73AFD3346652F64
:101B0000E5D00235DDE7632FFAE703F0FB02522A46
:101B100002D0542B7FF4A5ADA36A013BE3E74FF05D
:101B20000103054684F84030B1E60825AFE60925F3
:101B3000ADE65923CAE50725A9E600BFD6F60000A1
:101B4000B4F700009C08001091F60000012040004E
:101B500085F700007FB5064601AD542085E80E00EC
:101B6000FEF702FB034643F8046B044695E80700C2
:101B700083E807006FF001020025012322620A2298
:101B8000E361E26223636562A5621420FEF7ECFA6A
:101B90002021606304F14400FFF76FF8636B204677
:101BA0001D80A56165612561FFF7E2FC2046FFF716
:101BB000DFFC2046FFF7DCFC2046FFF739FDE36B36
:101BC0002046012B1CBF052384F8403004B070BDB3
:101BD00030B5054685B001AC2046FFF789FC94E896
:101BE0000E002846FFF7B6FF05B030BD10B504461D
:101BF00070B1C3684068984704F14400FFF76CF87F
:101C0000606BFEF7CEFA2046BDE81040FEF7C9BA79
:101C100010BD03694269013B036152F8230070471C
:101C2000C1F17F5101F57F11036901F57F513F310A
:101C30001944436953F821007047F8B5446A0546D2
:101C40000E46B4B194E809000B44834222D908310E
:101C5000002201442046FEF7A2FA0246B8B96168A4
:101C600020460831FEF79BFA636823602B6A6360A5
:101C70002C62102E374638BF102707F10800FEF7F8
:101C800073FA0023076043600446686202E0236839
:101C90003344236060680834064444F8046C2044EC
:101CA000F8BD38B50D460369C16804468B4208D3B8
:101CB000103189004069FEF767FAE368606110330C
:101CC000E36023696269591C216142F8235038BDE1
:101CD000F8B50D461F4690E80A008B4204461646AA
:101CE00008D31031C9008068FEF74EFA2168A06061
:101CF000103121606168A0684B1C636050F831208E
:101D000000EBC10365F3170240F83120DE705F601D
:101D1000F8BD10B48469CAB20023A16B10BCFFF7F0
:101D2000D7BF000073B58569044695F840100729B0
:101D30000DD1A96CE86CFEF779FE000140F00200BD
:101D40000146204602B0BDE87040FFF7AABF08294F
:101D50000BD12B460022A96CE86C03F067FAC3078D
:101D600006460CD540F00100EAE7092912D100959A
:101D700000230122A96CE86C03F0D6FA06460C2178
:101D80002046AD6BFFF759FF40F235130560436005
:101D90008660D5E7A1F10A03012B1CD8A96CE86C79
:101DA0000A290BD8FEF742FE95F8403048B10A2BBD
:101DB0000CBF06210A2141EA0010C1E7FEF706FE2A
:101DC000F2E7074E0748AA6CE96C0A2B08BF3046B9
:101DD00006F08AFED2E7090141F00E00B0E700BF2D
:101DE0004411010008110100DE2807D010F00103A2
:101DF00006D043080CBF0120002070470120704727
:101E000018467047FE2807D010F0010306D043089B
:101E100014BF01200020704701207047184670470A
:101E200010F0010204D040F001000860012070476A
:101E3000A8B110F003030FD10279352A0ED18368BF
:101E400013F001000B600AD19A0708D11868044BFF
:101E5000C31A584258417047104670471846704799
:101E6000F40C01002A2A2DE9F34704468846164659
:101E70001D4608D10021FFF7D3FE20B1820778D19B
:101E800003798B2B75D1A6F11C03012B5AD82F4651
:101E9000A94667B1013F39462046FFF7C1FE2369D5
:101EA0006269A3EB0903824642F823007FBB002747
:101EB00009F1FF39B94540D8A5EB0905012D58D0E6
:101EC000A6F12103022B02D9282E40F08380691E3F
:101ED0002046FFF7A5FE6946FFF7A2FF00286BD05A
:101EE000212E4BD0222E4CD0232E0CBF4FF01809A0
:101EF0004FF02209AF1E002F46DA002D40F0C280BD
:101F0000009EF30740F1C38046F001012EE01C2E35
:101F10000BD1FFF777FF0028C9D15046FFF764FFC8
:101F20000028B6D109F1FF39B3E7FFF75DFF0028BC
:101F3000BDD15046FFF766FFF2E72046FFF769FE86
:101F40000137B7E71E2EBBD100212046FFF768FE00
:101F50000746FFF749FF78B93846FFF753FF0028D7
:101F6000AED0DE252046FFF754FE29462046FFF777
:101F700098FE02B0BDE8F087FE25F3E74FF01609A2
:101F8000B8E74FF01709B5E739462046FFF748FE96
:101F900001A9FFF745FF78B1B9F1220F07D09DE8FD
:101FA0000600484604F004F8013F0090A3E70198BA
:101FB00005F067FE0028F2DAAF1CBF003946204664
:101FC000FFF73BFE46EA05268146C0F800804660E2
:101FD00007446DE0A6F12403022B38D8691E204681
:101FE000FFF71EFE6946FFF71BFF0028E4D0A5F1AE
:101FF0000209B9F1000F80DD09F1FF312046FFF73A
:102000000FFE01A9FFF70CFF0028D5D04946204656
:10201000FFF706FEC0F307103F28CDD04128CBD0F4
:102020002138C7B2019805F02CFE1A2F0AD80028D3
:10203000C2DB9DE80600384603F0BAFFA9F10209A9
:102040000090D6E71E2FF4D90028F2D1B4E7272E4E
:10205000B2D100212046FFF7E3FD6946FFF7E0FE1D
:102060000028A9D001212046FFF7DAFDC0F30710B0
:1020700030281ABF3C38C0B20220009903F0A0FB00
:1020800000903AE72046FFF7C4FD013D35E70C21FB
:102090002046FFF7D2FD40F235130146056043604C
:1020A000866063E72046FFF7B4FD013D47F8040D65
:1020B000002DF7D1494659E7036830B513B91360CD
:1020C000184630BD9C0702D01060012030BD5C680E
:1020D000E5B28D42F8D108331360200A30BD00000C
:1020E0002DE9F04F402300248FB002904FF4007090
:1020F0000D46019204930594FEF736F820230690CE
:10210000802007930894FEF72FF8019B09900A9509
:102110000C940D94002B53D0022B0CBF3A22224674
:102120000023A96B04A8FFF7D3FD0026059A002A17
:1021300000F068810699531E01EBC302059351F824
:10214000333092F80380C3F3170AA94BB8F1640F38
:1021500013F808B0A74BA84F13F80830526888BF8F
:1021600043F4807307EB43070BF03003102B0BF0A5
:102170000F0927D0202B55D0002E40F012810BF0F4
:1021800001030393039B134037F8134024F47F614A
:1021900021F00F01B1F5805F40F01E8195F84010ED
:1021A000C4F30B04A14202F1010440F0F98013B919
:1021B00004A8FFF7B7FD2846FFF73AFA2246E1E701
:1021C0003822ADE72AB907EB4207914504D801262A
:1021D000ACE7002EF7D1A8E73E4637F8023B23F4E0
:1021E0007F6121F00F01B1F5805F0CD195F84010AF
:1021F000C3F30B03994213D104A8FFF793FD2846BC
:10220000FFF716FA91E7531C994504D94246514607
:1022100004A8FFF75DFD318804A8FFF77AFD84E785
:102220000132D2E78EB102F10043013B37F813309F
:1022300023F47F6323F00F03B3F5405F27D1002120
:1022400004A80392FFF72DFD039A07EB4204914582
:1022500031D8019B43B1B8F1050F05D1002104A885
:10226000FFF7DEFC002849D00024224607EB49098D
:102270004F4560D1012A7CD11BF0400F79D0002658
:102280003146A64204A86DD1FFF70BFD4DE7012AA8
:102290009DD995F84030052B40F0DF8057495848CC
:1022A00005F084F804460023AA6B296805F018F9A4
:1022B0002046FDF73BFF264634F8023B23F47F61BE
:1022C00021F00F01B1F5805F16D195F84010DBB217
:1022D00099420DD1072904D104A80392FFF722FDEA
:1022E000039A28460392FFF7A3F9039A0132AEE757
:1022F000002A3FF46CAFCCE7531C87E7012104A808
:10230000FFF78EFC830710D000F00F000228ABD03F
:1023100004A8FFF77EFC04A8FFF77BFC002308223B
:10232000514604A8FFF79EFDFFE600289CD00379E4
:10233000352B99D1ECE739F8023D23F47F6121F088
:102340000F01B1F5805F05D1DBB2072B90D10134CD
:1023500001328DE7214604A8FFF762FC00B101328B
:10236000013485E7FFF755FC0136002818BF014608
:1023700087E71BF0800F04D0002104A8FFF791FC31
:10238000013423464246CBE7012A3FF420AF12F046
:1023900001010DD0B9F1030F7FF47BAF012107E0FC
:1023A0002246B9F1020FEFD1012A3FF410AF00210C
:1023B0001BF0010F02F1FF3308D0788820F47F6012
:1023C00020F00F00B0F5805F08BF5308012BD9D172
:1023D00000293FF4AAAED5E7531C514604A8424653
:1023E000FFF776FC214604A8FFF793FC9EE600BFAA
:1023F0005CF8000048FC000000F900003CF8000018
:10240000B00501000D9848B141680831FDF7C7FEDD
:102410000D9B5A681A600C9A5A600C9395F84030DC
:10242000002B7FF436AF089B002B3FF432AF099BA3
:1024300006981B680B93FDF7B4FE0998FDF7B1FEF3
:102440002846FFF7D3FB0BAB93E80300029B83E81E
:10245000030018460FB0BDE8F08F022B01D10249EE
:102460001DE7024902481BE740F8000058F8000049
:102470008008010010B5406800B910BD4468FDF740
:1024800090FE2046F8E700002DE9F0410546302097
:102490000E4690461F46FDF775FE072D0446057053
:1024A000C660A0F8148001D0012D0FD1B3681B09BC
:1024B000E38202F045FF0423206167832385202007
:1024C000FDF752FEE0622046BDE8F081014B5B5D06
:1024D000EEE700BFEBFC000010B50446C06AFDF754
:1024E00060FE2046BDE81040FDF75BBE002230B51F
:1024F000448DA24202D30023184630BDC36A03EBC9
:10250000C2035D688D42F7D00132F2E770B5044630
:102510000D461646FFF7EAFFC0B9218D638D8B4249
:1025200008D30631C900E06AFDF72EFE238DE06274
:1025300006332385638DE26A591C618502EBC30073
:1025400002F83360002345604370438070BD4368E8
:102550000BB9FFF7CBBF1846F9E7F8B544680F464B
:10256000ECB9F8BD7E6818463146FFF7BFFF2B4631
:10257000B0B10378033B022B15D805231D463B70F1
:10258000002231462046FFF7C1FF037813B90570DA
:102590006468F5E7032B06D104230370F8BD2346D6
:1025A0005D68002DDED1F8BD2DE9F04180461F4663
:1025B000C1B111F0030510D14E68F3B293420CD1B2
:1025C000360A01F10804B54201DBBDE8F08154F898
:1025D000041B4046B8470135F5E740463B46BDE899
:1025E000F0411847BDE8F081024B91228968FFF75E
:1025F000DBBF00BFC9300000024B65228968FFF7CE
:10260000D3BF00BF1145000010B50446084611466F
:102610002268FFF739FF636A436000238360236AFF
:1026200013B9206210BD13469A68002AFBD1986046
:1026300010BD896800220909806A02F048BC0000C8
:1026400042790B46012A02D1406AFFF75FBF426A16
:102650000149806A02F026B9A0FE000042790B46CB
:10266000012A02D1406A02F00FB9426A0149806A28
:1026700002F018B9A8FE000042790B46012A02D1E7
:10268000406A02F001B9426A0149806A02F00AB95F
:1026900098FE00008968806A02F0F0BB2DE9F74FD0
:1026A0000C46B3F1000AC8BF0B8B0646C4BF43F00B
:1026B00008030B83436A91461B7822849BB1002553
:1026C000A846736A5A8D954216DBB8F1000F0AD0FE
:1026D000CDF800A04B4642462146B06A02F00BFD01
:1026E00003B0BDE8F08F53464A462146B06A03B0B6
:1026F000BDE8F04F02F0EFBCDB6A03EBC50B13F84B
:102700003530043B012B03D80027638D9F4201DB4A
:102710000135D6E7E36A03EBC70213F83730052B20
:102720000CD1DBF804105368994207D10023BBF8A1
:102730000220B06A02F0A2FA08F101080137E4E7CA
:102740002DE9F041884611461A4600230446857952
:10275000878AC68A83718382C3820E4BFFF724FF68
:10276000A368ABB9E18A39B1A28A2AB9A06A02F09A
:102770008AFCA06A02F084FBA38AE28A41462046D2
:10278000FFF78CFF003518BF0125A782A571E682EF
:10279000BDE8F0815536000070B543790546012B40
:1027A0000C4606D1436A0A465B8B0221FFF72CFFD9
:1027B0002061A26821692846BDE870404623FFF7E2
:1027C000BFBF70B5134642790646012A0C4604D1B4
:1027D0000A460721FFF718FFA061A569304640238C
:1027E000E2682946FFF7ACFFE88A70BD436A10B57E
:1027F0005A8B0446FFF7E5FF01462046BDE810402E
:10280000FFF72CBF10B50446806A02F0DBFBA38BF8
:10281000626A0133D18C9BB29942A38338BFD384BF
:1028200010BD838B013B8383806A02F0EDBB03689C
:1028300023B919B18B0704BF0B6803607047000010
:1028400038B5836804460D465BB91146054804F067
:10285000ADFD2946A06004F10C00BDE83840FFF74B
:10286000E6BF38BD80080100014AFFF7E9BF00BF9D
:1028700058FE000038B50B790446092B4FF6FF735C
:102880000CBF058B458B9D4202D1064AFFF7D8FF4E
:10289000A28BE38B2946D21AA06ABDE8384002F029
:1028A0005FBB00BF17FD000070B50646406A0D46CD
:1028B000048BA10706D5214A29463046BDE8704061
:1028C000FFF7BEBF05F00F01022912D12909B37924
:1028D0001BB1C38B0133C38302E0838B013383833A
:1028E000012451B30022FFF711FE037813B3144AF9
:1028F000E2E72979914202D1A9680909E7E79942FB
:1029000011D1B379002BD6D10123B371A968A1B13C
:1029100001F00F03022B18BF896844F004040483FC
:1029200009090324DDE7A96844F0020404830909C6
:102930000524D6E703234470037070BD58F80000E7
:102940004EFE000049234822FFF7AEBF4323422238
:10295000FFF7AABF37B505460C4629B1CA0705D50A
:102960004910806A02F040FA03B030BD8B072CD0CA
:1029700001F00F04062C4FEA111307D00A2C0AD0DD
:10298000022C1BD11946FFF75BFEEDE71946806A62
:1029900002F06FFAE8E74279042A04D00621806A3F
:1029A00002F06CFAE0E701A91846FEF7E0F8019999
:1029B000AC6A06F0CFFB01462046F1E7042BD3D0EA
:1029C000D9B2806A02F002FACEE70968806A02F0A2
:1029D000D5F92279034B214653F8223028469847EF
:1029E000C2E700BF50FD00002DE9F14F0D46A907D9
:1029F0000446164612D005F00F03022B17D1290901
:102A00000AB1022A05D1204601B0BDE8F04FFFF718
:102A100025BE01B0BDE8F04FFFF712BE6968CBB22A
:102A20002A2B73D00BD8062B0DD0292B12D0294678
:102A30002046504A01B0BDE8F04FFFF701BF2B2BF5
:102A400075D0912BF3D1002EF1D105F108030A0ABC
:102A500000217FE0022A02D0A968FFF77BFFEF6820
:102A6000002FE4D017F00309E1D17B68B846DAB251
:102A7000872A07D1022E4FEA13280ED108F1010848
:102A800057F8288098F804302E2B25D1022E12D129
:102A9000A06A02F034FA012118E007F1080A08F1EF
:102AA000FF3BD945EADA5AF8041B2046FFF752FFEC
:102AB00009F10109F5E7D8F808102046FFF74AFFA9
:102AC000012EE8D1A06A02F0F5F90021A06A01B058
:102AD000BDE8F04F02F017BA2F2BA8D1012E0CD170
:102AE000A06A02F0E3F90022D8F80810A06A0909E8
:102AF00001B0BDE8F04F02F0EAB9022E02D1A06A9F
:102B000002F0E1F9D8F808100122EFE7A8680028E0
:102B10008DD0002A8BD1C16839B311F0030324D1C1
:102B20004A68D6B28E2E17D11A46816812E0002A62
:102B30007FF47DAFA96829B90B4601B0BDE8F04F1D
:102B400000F01AB88B0703D10B7908468B2BE2D023
:102B500000231A462046F0E78F2E03D101F1080327
:102B6000120AE2E79F2E3FF462AF00F1080302224F
:102B70006EE700BFF2FC00002DE9F84F0F1E06467D
:102B80009046994614BF012500251DD017F0030477
:102B90001AD13B79202B17D12146806A02F092FA94
:102BA000AA4608F1FF3BA9EB8509BBF1FF3F0ED117
:102BB000631CA84426D14146B06A02F07EFA57BB96
:102BC00045452BD1BDE8F88F4FF0FF34E8E759F8C1
:102BD0002A1061B18A070AD10B79202B07D1013461
:102BE0000AD15A465146B06A02F06CFA54460AF1CC
:102BF000010A0BF1FF3BD8E73046BDE8F84F0F4A1A
:102C0000FFF71EBE002FDBD02CB92246B968304634
:102C1000FFF7EAFED4E700223946F8E7AC4209BFE5
:102C200059F8243059F825100022996818BF00225D
:102C30003046FFF7D9FE0135C2E700BFF8FC0000BF
:102C40002DE9F74F06460C4615461F462046FFF76E
:102C5000CBF810B1002D4ED105E02046FFF7D2F899
:102C600040B1002D47D03946B06A03B0BDE8F04FFF
:102C700002F05FB9002C58D0A30756D163684FEA21
:102C8000132ADBB21C2B39D1002D3BD14FF00008A9
:102C9000D6F810B004F108090BF1010333610AF111
:102CA000FF33009385F001030193009B98450FDBF0
:102CB0000AF1010154F8211030463B462A46FFF73D
:102CC000BFFF5946B06A03B0BDE8F04F02F057B8F5
:102CD0005B46019A59F8041B3046FFF7B1FF08F133
:102CE0000108E2E73B462A4658F8041B3046FFF746
:102CF000A7FF4445F6D103B0BDE8F08F1D2B08D1E6
:102D0000002DC3D10AF1020304F1080804EB830487
:102D1000EFE71E2B03D185F00105A46896E72A2B67
:102D200003D1A368002B9CD194E721463046FFF7DE
:102D300011FE3A462946B06A03B0BDE8F04F02F0F2
:102D4000FDB82DE9F84304460D4606691F46B31C3D
:102D500003613146806A06F10108914602F00FF8DE
:102D60004146A06A02F05DF9A96800222046FFF7FB
:102D70003BFE2D690DBB49462046FFF7EBFD636A1C
:102D80001978062913D1A06A294602F0F3F9A06A3E
:102D900002F094F83146A06A02F0CBF8A06A4146EE
:102DA00001F0EDFFA06ABDE8F84302F03FB9BA00B8
:102DB0000532A06A02F077F9ECE72B79A02B07D156
:102DC000A968334600222046FFF73AFFED68D1E7B5
:102DD000E9682046FFF7BEFDA06A012102F019F95B
:102DE0007B1C4A4629462046FFF7ABFFD2E700008E
:102DF0002DE9F04104460E46002562711146056139
:102E000046623246806A01F0BCFD6779012F04BF3B
:102E1000B584F584F56865B1AA070AD12B793A2BF8
:102E200007D1A9682046FFF795FDA06A02F092F944
:102E30001FE0337843B929462046FFF78BFD0E216A
:102E4000A06A01F0C3FFF0E7072B17D1012F07D1CC
:102E50000023A37140224D4BE9682046FFF7A4FBF5
:102E600020466969FFF776FDA06A01F083FE00281D
:102E7000E5D0A06ABDE8F04101F034BE022B19D1C3
:102E80002968A06A01F07AFF6379012B07D100233A
:102E9000A37146223E4BA9682046FFF785FBE968EF
:102EA0002046FFF757FD338BDB07BED5A06A02F043
:102EB00005F8C4E7033B032B3CD8012FD5F80C8061
:102EC00005D103223946606AFFF720FBB7832968E2
:102ED000A06A01F053FF3378032B1ED10122002199
:102EE000A06A02F0D0F83378062B1AD1A06A01F05C
:102EF000C7FF01212046FFF7A3FBA06A01F0C0FF36
:102F0000A06A01F0BDFF0023AA6841462046FFF7F2
:102F100018FF3378062B88D191E7042BE3D10222E6
:102F2000DDE720460121FFF78BFB0121A06A02F0BB
:102F300070F8E8E7012F04D103220A213046FFF799
:102F4000E5FA17212046FFF77BFB16212046FFF705
:102F500085FBA968A06A090901F08BFF1A212046A8
:102F6000FFF77CFB29692046FFF7F4FC0A21304675
:102F7000FFF7BCFA0378032B3FF461AF42880023CC
:102F80000A21A06A01F07AFE4FE700BF4D29000038
:102F90004529000038B505460C46C968FFF7DAFC3C
:102FA000A1682846BDE83840FFF7D4BC10B50446F8
:102FB0008968FFF7CFFCA06A0021BDE8104001F04E
:102FC000A2BF2DE9F041804615460C4611B1FFF72E
:102FD000C1FC012435B100276E680835360AB742B6
:102FE00008DB34442146D8F828000022BDE8F0412F
:102FF00002F049B855F8041B4046FFF7ABFC013717
:10300000EDE70A460021FFF7DCBF2DE9F84F06691E
:10301000B0F818B0B31C0361838B06F10108B0F857
:103020001AA0B0F81E9004460683A0F81A80C38345
:1030300088680D46FEF7D8FEE0B927697B1C23613E
:10304000A868FEF7DFFE18B94146A06A01F071FFDB
:103050003946A06A01F093FEE9682046FFF77AFC42
:103060004146A06A01F08BFE3B460122A96820463A
:10307000FFF7E6FD29692046A4F818B0A4F81AA0C5
:10308000A4F81E90FFF766FC3146A06ABDE8F84F31
:1030900001F075BE10B504468968FFF75BFCA06AB5
:1030A000BDE8104001F00ABF896810B5044641B977
:1030B0000E21806A01F08AFEA06ABDE8104002F08D
:1030C00049B8FFF747FCF7E72DE9F04705460C46FE
:1030D00004F00F03022B05D121092846BDE8F04773
:1030E000FFF7CABA002C66D0A20764D12379292B36
:1030F00037D1A1682846FFF72DFCE668002E5AD08C
:1031000016F0030857D177683346FAB2872A09D1F7
:103110003F0A06F1080907F1FF3AD0450FDB0137F6
:1031200056F827301A792E2A11D128469968FFF7C8
:1031300011FCA86A0221BDE8F04701F0E4BE59F88D
:10314000041B2846FFF706FC08F10108E5E72F2AD3
:1031500031D19968A86A0222BDE8F047090901F057
:10316000B6BE2A2B27D1A4682CB3E668EEB1B3070C
:103170001BD17768FAB28E2A01D1A468A8E78F2AFA
:1031800011D1A1682846FFF79FFF00243F0A0836A7
:10319000BC4201DBBDE8F08756F8041B2846FFF768
:1031A00093FF0134F4E79F2A05D0A1682846FFF772
:1031B0008BFFE4688CE721462846BDE8F047014ACA
:1031C000FFF73EBBFEFC00002DE9F04106460F462E
:1031D00000244B6801F108081D0AAC4201DBBDE880
:1031E000F08158F8041B3046FFF7B4FBB36843B1D5
:1031F000023457F8241006F10C00BDE8F041FFF747
:1032000016BB0134E9E710B50446FFF7DDFFA06AFD
:103210002221BDE8104001F018BF2DE9F3470669EF
:103220000446731C036188680D46FEF7DDFD024607
:10323000F8B9276920467B1C2361A9683B46FFF744
:10324000FFFC2046E968FFF785FBA868FEF7DAFD7A
:10325000E8B92B690BB96B693BB1A06A01F08AFC34
:1032600018B93146A06A01F064FE3946A06A01F03F
:1032700086FD01AA6A2105F11000FEF71DFF002757
:10328000824657450AD169692046FFF763FB3146FC
:10329000A06A01F074FD02B0BDE8F087019B53F80D
:1032A0002780D8F80800FEF79FFD024608BBD4F837
:1032B0001090204609F101032361D8F808104B460D
:1032C000FFF7BEFC2046D8F80C10FFF743FBD8F8F8
:1032D0000800FEF797FD0028D9D1A06A01F04AFC4A
:1032E00018B93146A06A01F024FE4946A06A01F0EF
:1032F00046FD0137C5E770B543790446012B1646F4
:10330000CD6806D1436A0A465B8B3146FFF77CF9EC
:103310006861002369691A462046FFF7BFF9E9682A
:103320002046FFF717FB062E03D10021A06A01F00B
:1033300070FE0023A06A1A46BDE87040012101F02A
:10334000F2BE00002DE9F04F4FF0000B87B0039163
:103350000292044605AA982103A81F46FEF7ACFE78
:10336000D946DA465E46D8460190019B9B4516D168
:103370005EB1BAF1000F67D1A06A01F081FDB9F129
:10338000000F67D1A06A01F07BFD029B002B67D084
:10339000334642463946A06A01F0D0FE10E0059A55
:1033A00052F82B50002D40D0A8073ED12A799A2AF6
:1033B0000FD1F10707D52E4A29462046FFF740FADC
:1033C00007B0BDE8F08FAA4646F001060BF1010BED
:1033D000CBE79B2A07D1B20701D5264AECE746F096
:1033E0000206A946F2E79C2A1FD1EA6822B1930798
:1033F00002D112799F2A11D0A96801F00F02022A86
:1034000001D01D4AD8E70909A06A01F032FDE96838
:103410002046FFF79FFA08F10108D7E70622294660
:103420002046FFF768FF0137D0E70EB1134AC3E724
:10343000B8F1000F01D0124ABEE729462046FFF737
:1034400089FA01374646C1E7DAF808102046FFF747
:1034500081FA94E7D9F808102046FFF77BFA94E741
:10346000334642463946A06A01F05DFEA8E700BF38
:1034700064FE00006AFE000070FE00007BFE00009B
:1034800081FE000070B50D464179044601291346BE
:1034900003D12A46FFF7B8F86861A06A01F002FD7F
:1034A00000236E691A4631462046FFF7F7F8F18A85
:1034B000A06A01F0DEFCE96829B18B0703D10B7922
:1034C000972B08BF0021204602230022FFF73AFF76
:1034D000F08A70BD436A10B55A8B0446FFF7D2FFDD
:1034E00001462046BDE81040FFF7B8B800238968C0
:1034F0001A46FFF727BF70B58C68054634B901221C
:103500002146A86ABDE8704001F0BDBDA20730D1D8
:1035100023798B2B2DD1E66806B3B3071ED13379FF
:103520008E2B05D1A168FFF715FA01221146E8E7B5
:103530008F2B0BD1A168FFF70DFA31462846FFF714
:1035400043FE01227168090A1144DAE79F2B05D175
:103550002146BDE870400322FFF7CDBEA168284692
:10356000FFF7F8F9E1682846FFF7F4F90122022194
:10357000C7E721462846D6E72DE9F04F8A460025C1
:10358000044685B002AA3D210AF10800FEF794FD29
:103590002E46636ADFF8B8B05F8B0090009B9D42B7
:1035A00014D1DAF80C103A460B792046032B3FD1A0
:1035B000FFF707F980460027AD1BAF423BD34146DA
:1035C0002046FFF74BF805B0BDE8F08F029B03AA39
:1035D00053F82580662108F10800FEF76DFD039B76
:1035E000814619680A09732A2DD1022805D05A4646
:1035F0002046FFF725F9013618E059680B09412BE1
:10360000F5D10127F7E7039AA06A52F823100022A8
:103610000909019301F05BFC019B01334B45F2D397
:10362000D8F80C1011B12046FFF794F90135B5E731
:10363000FFF728FFBEE7002301211A46A06A01F028
:1036400072FD0137B9E72046FFF784F90123E5E76A
:103650001FFD000001F00F03022B70B5044611D0CE
:103660000B79432B01D0492B02D10123A37170BDEB
:10367000442B3ED04A2B3CD0422B0CBF0D69CD6869
:103680008E6855B9A379002B33D1E38A8BB32046DA
:10369000BDE87040174AFFF7D3B883790BB3838A2C
:1036A00001339BB2012B83820AD1C18AA9B10022C6
:1036B000806A01F0E8FC02220021A06A01F0E3FC2C
:1036C00029462046FFF746F9A06A310901F0D1FBEF
:1036D000A06ABDE8704001F0E1BC806A01F0D0FB57
:1036E000E9E7C38A2946BDE870400133C382FFF78A
:1036F00031B970BD37FD00002DE9F8430C468968EB
:103700000646FFF727F9E568002D00F083806F6813
:10371000FBB2872B736A18BF04F10C051B7812BF2C
:1037200001273F0A0835072B4AD1A36803F00F028F
:10373000022A45D11B099A2B42D12B681A792D2ACE
:103740003ED19B68002B3BD10A213046FEF778FF23
:10375000726AD36A528D32B929683046BDE8F8439F
:103760002D4AFFF76DB85978C9070DD5596830460D
:10377000FEF766FF022F0AD8002302211A46B06A1C
:1037800001F0D1FC012417E0013A0833E3E76B684C
:103790001A792F2AF0D1AC6822792D2AECD19968B8
:1037A00001220909B06A01F06FFBA1680023012220
:1037B0003046FFF7C7FD0324A74203D8BDE8F883CE
:1037C0000024F9E704F1010847451CD955F82420E5
:1037D000A30011792F2916D12B44D3F8049099F81E
:1037E00004302D2B0FD19168B06A0022090901F035
:1037F0004BFB00230122D9F808103046FFF7A2FD49
:1038000008F10104D8E755F824103046FFF7A2F874
:10381000A046F5E7BDE8F88308FD0000F8B54B6861
:103820000C46896806461F0A0025FFF793F80C34FA
:103830000235AF4204F1080400DCF8BD54F8041C62
:103840003046FFF787F854F8081CB06A0909213997
:10385000C9B201F0FAFBEBE72DE9F0414D680C46E7
:10386000896880460126FFF775F8A5F10B07FFB2BE
:103870002D0A0C34AE4201DBBDE8F08154F8041B84
:103880004046FFF767F83946D8F8280001F0DDFB1D
:103890000136EFE7F8B5CD6804460E463DBB037927
:1038A000A3B1436A1D788DB9B421FEF7C9FEB16892
:1038B0002046FFF74FF82B462A460121A06A01F067
:1038C00032FCA06ABDE8F84001F0F8BAB1688A0796
:1038D00007D001F00F03022B08D12046FFF73AF87A
:1038E000EFE70029F9D00B79352BF6D1F8BDAB07FE
:1038F00052D16B68DAB2552A11D1ED68002D4BD147
:10390000406A0378072BF1D1896801F00F03022B7D
:10391000ECD1BDE8F84003220909FEF7F7BD502AB3
:1039200015D101228968FFF75FF8E9682046FFF7A3
:1039300011F8A968A06A09093B39C9B201F085FBF1
:103940000222B1682046BDE8F840FFF74DB8512A81
:1039500022D11B0A5F1E013355F82310FEF7FAFF30
:10396000002F02DDA06A01F0A1FAB1680022204612
:10397000FFF73AF800260835BE4200DBF8BD0136F5
:10398000B74202DDA06A01F091FA002255F8041B4B
:103990002046FFF729F8EFE729462046FEF7DAFF31
:1039A0000022CEE738B50C460546C968FEF7D2FFBF
:1039B000A168A86AC1F3071130291ABF3C39C9B2FE
:1039C0000221BDE8384001F03ABB10B504468968D1
:1039D000FEF7C0FFA06A0321BDE8104001F02FBB35
:1039E0002DE9F843044600274D68D0F810805FFAAF
:1039F00085F9A9F11C03D3F1000949EB030908F18A
:103A0000010303612D0A01F10806AF4205DB4146BF
:103A1000A06ABDE8F84301F0B2B956F8041B20468D
:103A20000137FEF797FFBD42EFDD42464946A06AE7
:103A300001F08DFAE9E72DE9F04104464E680D46A4
:103A4000360A8968FEF786FF032E98BF4FF00008FC
:103A50004FF0010782BFD4F8108008F10103236101
:103A60007B1C9E421CDC032E4ADD2569A06A6B1C70
:103A70002361294601F05DFA4146A06A01F07FF911
:103A80000121A06A01F07BF8A06A01F01CFAA06A8B
:103A900001F014FA2946A06ABDE8F04101F06FB9BF
:103AA000296920460237FEF755FFBE4205DDA06AB0
:103AB00001F0FCF9A06A01F022FAEB6803F00F02B2
:103AC0000E2A12D1C3F30713222B0EBF0621313B5E
:103AD000D9B2A06A01F0B9FABE4204DD4246002123
:103AE000A06A01F034FA0835BAE71A797E2A01D1C2
:103AF0003221EEE79B680BB90721EAE73321E8E7BB
:103B0000BDE8F0812DE9F041044688460569CF689B
:103B1000AB1C036100222B46B968FFF791F86E1CBD
:103B2000D8F808102046FEF715FF3146A06A01F0CC
:103B300000FA2946A06A01F022F9A06A4FF0FF318D
:103B400001F01DF8F9682046FEF704FF3146A06A2F
:103B5000BDE8F04101F013B92DE9F04F8B688BB04F
:103B600003F00F03022B04460D4640F0F080CB68B3
:103B7000002B00F0EC80980740F0E9801A79292AA0
:103B800040F0E5809A6802F00F01022940F0DF80E2
:103B900012097C2A40F0DB80DB681A792D2A40F07C
:103BA000D6809B6809AA982108A80893FEF784FA92
:103BB000431E022B00F2CB800128099940F0B98006
:103BC00003260246D1F80090930704D111799A395F
:103BD000022940F2BC80B9F1000F08D019F0030FA0
:103BE00005D199F804109A39022940F2B080AB68E7
:103BF0006F6901932B6925690293238BA18B039332
:103C0000638B19F001080493E38BE183059305F1BD
:103C100001030693BDF8183005F1040163836FEAD0
:103C2000090305F1020A258305F1030B21610693BF
:103C300005D1494620460792FEF78CFE079A1146A9
:103C40002046FEF787FE5946A06A01F072F95146F8
:103C5000A06A01F094F8A06A01F028F90022019905
:103C60002046FEF7C1FE02992046FEF773FE691C4E
:103C7000A06A01F084F831462046FEF76BFE0E2163
:103C8000A06A01F0E2F9A06A594601F078F8A06A4A
:103C9000B8F1000F40F0A28001F00CF9A06A01F029
:103CA00012F9002EACBF00210121A06A01F0CDF96C
:103CB00052460121A06A01F041F9BDF80C3023837E
:103CC000BDF810306383BDF81430E383002F00F09B
:103CD0008C80A06A01F0F2F8B8F1000F02D1A06A5E
:103CE00001F0ECF839462046FEF734FE2669A06A5A
:103CF000731C2361314601F01CF9069BA06A03F096
:103D00000101013100F03BFFA06A294601F037F8BC
:103D1000A06A01F0D3F8B8F1000F02D1A06A01F057
:103D2000CDF81FB13146A06A01F029F80BB0BDE80B
:103D3000F08F022891E8040204D10326002A3FF400
:103D40004AAF41E78E68F10701D57308F6D12669BD
:103D5000A38BB4F81E90E3836FEA46436FEA5343A4
:103D6000B4F818B02383F31C2361771CB4F81AA0AD
:103D7000E96820466783FEF7EDFD0121A06A01F0A6
:103D800048F906F102083946A06A00F0F8FF4146FA
:103D9000A06A01F046F90022A9682046FEF724FE39
:103DA00020462969FEF7D6FDA06A00F0E3FE18B9A7
:103DB0003946A06A01F0BDF84146A06A00F0DFFF75
:103DC000A06A01F033F9A4F818B0A4F81AA0A4F876
:103DD0001E9069692046FEF7BDFDA3E701F066F875
:103DE00049462046FEF7B6FD5BE73E468CE72DE9E7
:103DF000F0470446904699460F4621B9BDE8F04782
:103E00001946FEF7A7BD0669731C0361156815B353
:103E100015F0030A1FD12B79742B1CD1A968FEF76A
:103E200099FD524631462046FEF7ECFC5246E968C1
:103E30002046FEF7D9FD4B4608F10402791E2046C4
:103E4000FFF7D5FFA06A314601F0C8F82046BDE86B
:103E5000F047FEF7E6BC29462046FEF77BFD2046EC
:103E600000223146FEF7CEFCA06A01F027F8E2E717
:103E700037B50C46054601AA732104F10800FEF788
:103E80001BF9E3680146019A2846FFF7B0FF03B02B
:103E900030BD00002DE9F04F04460F4685B006699D
:103EA0001D460E9B31460393731C0293B31C0361A2
:103EB00093460122FEF7A6FC39462046FEF74AFD4E
:103EC0000022711CA06A01F0B5F831460026A06AF4
:103ED00000F055FFA06A01F05BF9D4F8108008F1FA
:103EE000010323615E4514DB2046FEF79AFCA06ABD
:103EF00001F051F90299A06A00F041FF03992046B0
:103F0000FEF728FD4146A06A05B0BDE8F04F00F07D
:103F100036BF2B46D4F810901A680435019209F187
:103F200001022261019A9768002F41D1721C5A4503
:103F300033D14FF0000AA06A00F0C0FF5746019B42
:103F40002046D968FEF706FDBAF1000F16D00E2103
:103F5000A06A00F03BFF3946A06A00F010FF0E2176
:103F6000A06A00F033FF51462046FEF777FB20465B
:103F70005146FEF781FB2046FEF753FC01224146E5
:103F8000A06A01F057F84946A06A00F0F8FE012146
:103F9000A06A00F0F4FD0136A4E720461C4A196827
:103FA000FEF74EFC204605B0BDE8F04FFEF739BCE9
:103FB00017F0030327D139793A466F2926D1D36800
:103FC000BF684FEA131AA06A00F070FF3946204616
:103FD000FEF7C0FC0821A06A01F037F84A4600212C
:103FE000A06A00F0ABFFBAF1000FA2D05146204604
:103FF000FEF734FB276920467A1C226139460222EB
:10400000FEF700FC9BE74FF0000ADCE79A46DAE790
:1040100088FE00002DE9F3471746056999466B1C99
:104020000E460361022229460446DDF828A0DDF889
:104030002C80FEF7E7FBF7B90321A06A00F09FFD93
:1040400031462046FEF786FC6FF00201A06A00F0C0
:1040500096FDA06A0E2100F0B9FE2946A06A00F084
:104060008EFE20464146FEF775FC204602B0BDE8B4
:10407000F047FEF7D6BBCDF800A04B463A46314696
:104080002046FFF707FFE4E77FB5CD6806462B79AA
:104090000C46712B09D1AB68019300231A4600939B
:1040A0008968FFF7B7FF04B070BD6D2B03AA4FF00E
:1040B000700116D105F10800FDF7FEFF2B690246DD
:1040C0003BB9EB680093039BA1683046FFF7E2FE23
:1040D000E9E79B68A1680193EB6830460093039B76
:1040E000DFE704F10C00FDF7E7FF00230246009331
:1040F000039BE9E7436A70B51B780446072B0A4621
:1041000006D0022B04D0BDE87040144AFEF798BBDD
:1041100095682DB90E21A06A00F058FE002112E02A
:1041200015F0030614D12B79A22B11D1A9682046D2
:10413000FEF710FC3146A06A00F06BFF0E21A06A6A
:1041400000F044FE0121A06ABDE8704001F012B801
:1041500029462046FEF7FEFBE0E700BF92FE000086
:10416000896830B4054619B90A4630BCFEF729BF44
:10417000CB688BB113F003020ED11C798E2C01D1C8
:104180008968F2E78F2C01D11A46F9E79F2C03D1F9
:10419000062230BCFFF7AFB80A4628460021E4E704
:1041A000F8B5144B0446D3F894600F460EBB05696E
:1041B00001226B1C036189682B46FEF741FD1F211C
:1041C0000122A06A00F091FDF96841B12046FEF796
:1041D000C1FB334632460121A06A00F0A4FFA06A69
:1041E000012100F0C1FF2946A06ABDE8F84000F0B7
:1041F000C6BDF8BD9C08001038B58C6805462CB9C2
:104200002146A86ABDE8384000F0AEBFA3070BD135
:104210002379582B08D1A168FEF79CFBE16828465A
:10422000FEF798FB0221ECE721462846FEF792FBB9
:104230000121E6E72DE9F74F43790446012B0D46AE
:1042400008D10F79102F08D0436A1B782BB9224A66
:10425000FEF7F6FA03B0BDE8F08F01AA672105F179
:104260000800FDF729FF00268046DFF878B0B0454A
:10427000F0D0019B002253F82610606A0909FEF76E
:1042800045F9102F8146027815D112F0FD0F05D0A7
:104290005A4629462046FEF7D3FA0AE04FF0020AB2
:1042A00080F800A04168606AFEF751F908B180F813
:1042B00000A00136DBE75AB9012202700146606AAC
:1042C000FEF74BF999F80030012BF2D1034AE0E7F1
:1042D000052AEED0024ADCE728FE000041FE00007D
:1042E00048FE000036FE00002DE9F04F87B0814601
:1042F00000AF0C4611B90121116013E011F0030564
:1043000019D10B79622B06D1CB681B0913608C681D
:10431000002CF0D0012504F00F03022B0DD1210950
:10432000002DE9D00022D9F8000000F037FD1C373D
:10433000BD46BDE8F08F0025EDE715B9A3681B0960
:10434000136004F108039B464FF000086668FB60A9
:10435000360A06F1FF3A464526DC0AF10E0323F041
:104360000703ADEB030DE8464FF0000BC7F808D08C
:104370005E4522DC5146B868FCF758FB0022014636
:10438000D9F8000000F00AFD002DD0D001250C3432
:10439000AE42CCDD54F8041B00220909D9F8000014
:1043A00000F095FD0135F3E75BF8040B08F1010817
:1043B0000009FCF7D2FB8244CDE7BBF1000F05D02A
:1043C0004FF02E0308F1010808F8013CFB6807F1E3
:1043D000140153F8040B0BF1010B0009FB60FCF70F
:1043E000C6FB7B6901461A4640467B600AF0C8F866
:1043F0007B689844BCE72DE9F3418D68044605F0DD
:104400000F030E2B0E4606D0002D40D0AB073ED139
:104410002B795F2B2ED10095002501AA5F216846DC
:10442000FDF74AFE002140F29E52019B03EB800003
:10443000984225D140F2EE33F268A06A9A4228D120
:10444000264600F0D1FC0521A06A00F012FD56F8C6
:10445000280F0022012100F016FE01AA294630464D
:10446000FFF742FF02220021A06A00F097FC02B091
:10447000BDE8F0815C2B0AD1AB680093ED68CCE716
:1044800053F8047B97420CBF01310331D0E7002180
:10449000D0E700F0A9FC06F10C006A466421FDF7A4
:1044A0000BFE00260746BE4212D1274657F8280FBA
:1044B0000022314600F0E7FD294601AA3846FFF701
:1044C00013FF0025AE420DD1A06A00F0F7FCCEE745
:1044D000009BA06A53F8263001369968090900F05C
:1044E000C8FCE0E7009B012253F82580A06AD8F8B9
:1044F00008703F09394600F051FCD8F80C1029B972
:1045000039462046FEF7AAF80135DBE70909F8E746
:1045100073B5044625460E46806A002100F064FC0F
:1045200055F8280F0E2100F051FC01AA314628460B
:10453000FFF7DAFE01992046FEF790F802B070BD51
:104540002DE9F3418C6805463CB902222146806A78
:1045500000F099FD02B0BDE8F08114F00306F9D136
:104560002379322B0CD102220121806A00F08BFDCD
:1045700028462146FEF7EEF9A86A00F08FFDE9E72C
:10458000932BE7D1E3681A79952A30D103F108001B
:1045900001AA9621FDF790FD0222411C8046A86ADF
:1045A00000F071FD2846A168FEF7D4F9A86A00F072
:1045B00075FDB045CED0019B53F8261081B18A0716
:1045C0000ED10F79A7F132035F425F412846FEF713
:1045D000C1F93FB9084A21462846FEF731F9B9E743
:1045E0000027F3E7A86A00F059FD0136E1E704224D
:1045F0002146FEF780FEADE758F800002DE9F04FA8
:104600008FB00D46144606462C22002103A809F05F
:10461000F5FF4FF6FF73ADF82430ADF826300023D8
:104620003268194603A803958DF81040FDF7ECFF9A
:10463000044600F091F94FF000080546DDF82C9093
:104640000D90B9F1000F3CD10B9B13B1059A002AD4
:104650004AD04146284600F082F90B9F059B17B1CE
:10466000002B00F0F3805BB10C9B06A8D968FEF725
:10467000DEF80C9B069ADB8A0399059802F030FF5E
:10468000284600F074F93046FDF7F4FE2569A66867
:104690002046FDF721FF3446002EF8D1059800286A
:1046A00000F0EA80FBF742FDD9F82C3003EBC7019C
:1046B00013F83730012B02D14846FDF74EFF013782
:1046C00007E0059F002FBFD10122494603A8FEF74E
:1046D0008FFBB9F82A309F42E6D3079BD9F80890A0
:1046E000984538BF9846ACE7198B4F071FD5588DB2
:1046F000411EC900D8B1DF6A0F4497F801E01EF0EF
:10470000020F39D09AB197E8030092F800A092F80E
:104710000190B2F802C0D2F804E082E8030087F802
:1047200000A087F80190A7F802C0C7F804E04FF096
:1047300000020021B3F82AC05A84614524DB00221C
:10474000944541DCD3F80490B9F1000F12D0002158
:10475000B9F82A2001920A460198814244DB4AB105
:1047600000218C4563DC998B92B211449983598C5A
:104770000A445A849B6868E71AB9BEF1010F08BF62
:104780003A4601380839B5E71A78DF6AC800012AC5
:1047900007EB000E05D1DEF804200A2A07D101310B
:1047A000CBE704D93A5C012A04BF02223A543A5CAE
:1047B000032A03D09EF80120D007F0D55A8C501C54
:1047C0005884AEF80220EAE7D96A01EBC20011F87A
:1047D0003210042906D14178C9075FBF598C418046
:1047E000013159840132ABE7D9F82C0000EBC10B41
:1047F00010F831000438012803D84FF0000EF445BA
:1048000001DC0131A8E7D86A00EBCE0A10F83E00BF
:10481000052809D1DAF804000746DBF80400B8429D
:1048200004BFAAF8022001320EF1010EE7E7DF6AA9
:1048300007EBC10017F83170052F02D14778FF0749
:1048400002D547881744478001318AE7022239465A
:1048500003A80D95FEF7CCFA059B23B90322394630
:1048600003A8FEF7C5FA059B23B90422394603A81D
:10487000FEF7BEFABF68F1E632463146284600F040
:1048800077FD0FB0BDE8F08F10B504460122FDF7AB
:104890003DFE2378012B04D90378012B04BF0323A9
:1048A000037010BD70B505460E46104619461C46ED
:1048B000FDF71CFE0378012B06D100227368214608
:1048C0002846BDE870401847022B02D173680122C8
:1048D000F5E73668032B428821462846B446BDE8F2
:1048E00070400CBF0023012360474379032B98BF1E
:1048F0000246036A89BF026B0233D218023394BFA7
:10490000036203621170090A51707047427910B551
:10491000032A0346826A02D80A44826210BD406AB2
:104920001418186B0A4420449A6210BD10B50C4646
:104930000121FFF7EBFF047010BD4379032B98BFF3
:104940000246036A89BF026B0133D218013394BF58
:1049500003620362117070474820FBF713BC10B567
:10496000044681618800FBF7FFFBE06110BD10B5D4
:104970000446C069FBF715FC2046BDE81040FBF774
:1049800010BC2DE9F74F0023044615466171836082
:104990008371E26001220361836203626E8CAB8CDF
:1049A000B5F82680F61808BF1646AF8B8A464FEA40
:1049B0008801013E426101F0040107F00302114346
:1049C000B5F81890F20002F07802EB8BB5F820B041
:1049D00009F00F09114336094FEA5808BF0846EAA3
:1049E000080242EA09023A431A4352EA0B021ED174
:1049F0002046FFF7A2FFBAF1020F41D8236AE98AE5
:104A000063632046FFF771FFA98A2046FFF76DFF19
:104A10000023BAF1040FA387A4F840305FD1A88B1C
:104A2000EA8B104483425AD06E8D002153E041F04E
:104A3000800120460193FFF780FF4FEA8911320180
:104A400002F03002019B01F0400111430BF0010222
:104A50001143DA0002F008021143BA0002F0040226
:104A600011434FEA480202F002021143B6084FEA2E
:104A700058084FEA59097F085B084FEA5B0BAEE71D
:104A8000636BA26B590002F001009B09520801F010
:104A90007E01014363631343A26318BF41F08001A9
:104AA0002046FFF74AFFA26B636B1343E8D1A5E7EB
:104AB000EA6A02EBC1025778FF070BD55788BB4261
:104AC00008D15268616CD20042F0020241F8232002
:104AD0000133A7E70131B142EADB0522F2E703B077
:104AE000BDE8F08F437970B5012B044641D0002119
:104AF000FFF723FF0025426B036A85639B1A43631C
:104B0000E068438D9D421AD3A38FE3876379032B1B
:104B100025D1A36A206AE36260621844FBF732FB86
:104B2000E3682063988BDB8B1844A38F1844B4F898
:104B3000403018448000FBF725FB606470BDC36AF9
:104B400003EBC50213F83530042B06D191782046CB
:104B5000FFF7F3FEA36B0133A3630135D0E7042B0A
:104B600007D1038B626C216B0069BDE8704000F0D7
:104B7000F1BB70BD8079003018BF012070474379C8
:104B8000012B09D083681944C36881609A8C9142D3
:104B9000C8BF998400238371704738B51446FFF766
:104BA000EEFF0121FFF7B2FE047038BD73B50DF1C1
:104BB000050406461D46FFF7F0FF214605F07F037A
:104BC000ED0904F8013DF9D1091B3046FFF79EFEBF
:104BD0002346411E01ADAB4205D19DF804201B1BAD
:104BE000C25402B070BD13F8012B62F07F0201F8CD
:104BF000012FF0E770B41E46C468E38BA58BB0F8B4
:104C000040401D44C38F1D44631CA0F8403063190D
:104C10004479042C04BF446C44F8236070BCFFF753
:104C2000C5BF03F128011346CAB20021FFF7BEBF7A
:104C300070B4039C049E2502640046B11C440132FA
:104C400002342B43091BD2B270BCFFF7AFBF1C4428
:104C5000F7E7C26810B4938BD28B1A44838F5C1C25
:104C6000134442798487042A08BF426C10BC08BFF1
:104C700042F8231023220121FFF798BF10B4044605
:104C80003BB90F2A05D8503AD2B2012110BCFFF728
:104C900084BF03F124012046134610BCCAB201218F
:104CA000FFF784BF10B4044643B90F2A06D8403A30
:104CB000D2B24FF0FF3110BCFFF76FBF03F12601F6
:104CC0002046134610BCCAB24FF0FF31FFF76EBF4B
:104CD00070B51C461546FFF752FF0321FFF716FE7D
:104CE0004470240A0570847070BD11320B46D2B234
:104CF0000121FFF7EDBF16320B46D2B24FF0FF3164
:104D0000FFF7E6BF19320B46D2B20021FFF7E0BF32
:104D1000F8B516461F46FFF732FF43790321032BF0
:104D200081BF846AC269C4F5FF4452F8273086BF48
:104D30007D34E4180024FFF7E9FD44702412067066
:104D40008470F8BDF8B516461F46FFF718FF437983
:104D50000321032B81BF846AC269C4F1FF2404F5D7
:104D60007F0483BF52F82730FD34E4180024FFF796
:104D7000CDFD4470240A06708470F8BD704738B5C4
:104D80000D460021FFF7FBFE4379012B05D0032BD5
:104D90009EBF826AC36943F8252038BD012A10B43A
:104DA0000B46044607D0022A0CD169224FF0FF318E
:104DB00010BCFFF7F2BE11461B322046D2B210BC27
:104DC000FFF786BF4FF0FF31F6E700000C2902D154
:104DD0000449FFF73EBF01F14302D2B20121FFF7C0
:104DE000DCBE00BF4810010001F110033F2B73B57A
:104DF00006460C4607D8A1F18002D2B20121FFF786
:104E0000CCFE02B070BD01212222FFF7C6FE0DF1DB
:104E100005031946E2B202F07F00E41103F8010C29
:104E2000601C012803F1FF3516D8013402F040025E
:104E300014D11AB97F2205F8012C9D1E491B30465A
:104E4000FFF764FD2B46411E01ACA3420AD19DF839
:104E500004205D1B4255D4E72B46DBE7002AEDD04A
:104E60000022E8E713F8012B62F07F0201F8012F1E
:104E7000EBE70B4610220121FFF72ABFFFF7E9BE3F
:104E800053220121FFF789BE10B4002A4FEA4204E1
:104E90000B4618BF1522C4F1010108BF142210BC33
:104EA000FFF716BF54220121FFF777BE57220121D9
:104EB000FFF773BE58220221FFF76FBE59224FF051
:104EC000FF31FFF76ABE5A220021FFF766BE70B5B8
:104ED0000D46044611462AB92B461322BDE8704000
:104EE000FFF7F6BE022A04D1FFF7CAFF2046FFF7FC
:104EF000EAFF2B4618226FF001012046EEE75B2205
:104F00000021FFF74ABE10B5044631B955224FF0D3
:104F1000FF31BDE81040FFF740BE022904D1FFF782
:104F2000AFFF2046FFF7EBFF56226FF0020120464D
:104F3000EFE70B4642220021FFF7EABE134621B1FC
:104F400043224FF0FF31FFF7E3BE4422F9E7134657
:104F500021B145224FF0FF31FFF7DABE4622F9E7D3
:104F60002DE9F0410446164601F4004721F40045BE
:104F7000C2B93FB92B462046BDE8F041422200218C
:104F8000FFF7C6BE5921FFF7D1FC20465921FFF794
:104F9000CDFC20465921FFF7C9FC59212046FFF7D7
:104FA000C5FCE7E700212B464022FFF7B1FE002FAA
:104FB00014BF8021002131432046BDE8F041C9B231
:104FC000FFF7B4BC10B4002A0CBF022400244732FF
:104FD0000B46D2B2214610BCFFF7B4BE38B504462A
:104FE0000D460E21FFF7F2FE29462046FFF7C7FEC9
:104FF000204602215C22FFF7D0FD2046BDE8384064
:105000006FF00301FFF7BBBD5D224FF0FF31FFF7EB
:10501000C4BD00290DBF5E225F2203210021FFF7DE
:10502000BCBD0B464B220121FFF78CBE6FF0030184
:10503000FFF7A5BD0B464A220021FFF783BEA1F171
:105040003002D2B20021FFF7A8BD322938B505469B
:1050500013D0332914D101240721A1F12902D2B29E
:105060004FF0FF312846FFF798FD5CB12846BDE8B8
:105070003840D3220021FFF790BD01240621ECE740
:105080000024EAE738BD022A02F12A020B46D2B216
:1050900014BFC1F101010121FFF788BD62226FF049
:1050A0000101FFF77ABD033918BF01218B1841EACE
:1050B00083032F22C943FFF779BD0B463022013904
:1050C000FFF774BD10B4144641EA02232144312293
:1050D00010BCFFF76BBD10B4044632B92BB90B6995
:1050E0003222012110BCFFF785BD0B6933224FF03E
:1050F000FF312046F6E770B515460446049AEEB235
:1051000063B95AB920220B69C5F10101FFF772FD9D
:1051100031462046BDE87040FFF708BC0B692122EC
:10512000E9432046F2E707B58DE80C000B46342230
:105130000021FFF77DFD03B05DF804FB07B58DE8A6
:105140000C000B4636224FF0FF31FFF771FD03B024
:105150005DF804FB10B563224FF0FF310446FFF702
:105160001CFD0123A37110BD01F16402D2B24942BA
:10517000FFF713BD10B5044601F16702D2B24942F0
:10518000FFF70BFDE268138B43F00103138310BD9F
:105190000421FFF7F4BC6FF00201FFF7F0BC012916
:1051A00010B511682CD931F01004037814D1302BCC
:1051B00012D14478831C44F02004782C03D11021B0
:1051C0001160181A10BDF1B96F2C01D10821F7E751
:1051D000622C16D10221F3E7082908D1302B12D115
:1051E000437843F020036F2B0DD1831CE9E702299C
:1051F00006D1302B07D1437843F02003622BF3E72D
:1052000009B90A2313600346DBE7000008B504462A
:1052100031B1054B8A6B03600968002302F060F925
:105220002046FAF783FF00BF800801002DE9FF4701
:105230001F46019246189ABB0546B5422C463BD202
:105240002078FCF7D9F8013580460028F5D123787D
:105250002B2B2BD12C46311B204601AAFFF79FFF99
:105260000444A1460025B1454B4628D3B8F1000FB0
:1052700000D06D426D0045F00105A34209D01C46E7
:10528000B442234644D218780134FCF7B5F800281C
:10529000F6D12249224802F089F83946FFF7B6FFD5
:1052A000023A222AC8D91F4800F07AFA2D2B04BFEF
:1052B0002C464FF00108CEE74FF00008CBE719F875
:1052C000012BA2F1300ABAF1090F09D95F2ACAD01D
:1052D00042F02002A2F161011929C7D8A2F1570AB0
:1052E00001998A45C2D2284607F0E2FB28B9019B02
:1052F00003FB05A595EA4503B5D504A8019B40F835
:10530000044D4246311B02F0C9FC039B0546B4E73D
:10531000BFD1284604B0BDE8F08700BFD3FE00002F
:1053200034090100C3FE000008B50349034802F038
:105330003DF80299FFF76AFFB0FE00003409010052
:1053400008B50C20FAF71EFF0121027861F3020272
:10535000027008BD30B502250478416065F302048F
:1053600004700488826063F3C904048030BD0000C7
:1053700010B504460846A3681146626802F0D2F9E7
:1053800023881B0744BF014B036010BD100C0100B4
:1053900038B515460C4611F4807214BF95E8060026
:1053A0001146FFF7E5FF620902F008022A44E1B264
:1053B000BDE8384001F008BC38B5FBF7FBFA002324
:1053C0000B4C032104F1380504F124006363C4F895
:1053D000943001F04DFE0121284601F049FEAA2239
:1053E000BA21284601F0A0FE6560A56038BD00BF67
:1053F0009C080010704700000048704770160100BC
:10540000034BC0000A4640F00201586801F08CBE10
:105410009C080010034BC10041F00201586801F0E4
:1054200091BE00BF9C080010034BC0000A4640F02C
:105430000201986801F078BE9C080010034BC1007F
:1054400041F00201986801F07DBE00BF9C08001089
:1054500070B51C469307064615460AD113689A880C
:1054600012F0200F0AD0530605D5CA680C4B9A4299
:1054700001D1256070BD84E8600070BD094A934287
:1054800002D16B68236070BD074A9342F1D110B11D
:1054900001F080F801466B686160236070BD00BF59
:1054A0008DA10000C01401008414010000232DE927
:1054B000F0410D46136053600746144601F06AF848
:1054C000192D064606D1836A23B1104B84E8880063
:1054D000BDE8F081F3692BB1224629463846BDE884
:1054E000F0411847B06B78B1E9001A4641F002016B
:1054F000043000F04FFF38B1234642683146384649
:10550000BDE8F041FFF7A4BFBDE8F081241701001A
:10551000F0B58DB0054668460E4617461C46FAF7AC
:10552000F3FD40B93A4631462846FFF7BFFFFAF788
:10553000E3FD0DB0F0BD002CFBD1019B04491868C0
:1055400005F05EFA0028F4D10198FAF7EFFD00BFEC
:10555000480401007FB50623C00040F0020001901E
:105560000491052001A902930393059205F0A6FC7E
:1055700007B05DF804FB70B500244568AB689C4239
:1055800000D370BDEB68E60053F8340078B104280E
:105590000DD003F083FF03785F2B08D0EB68985998
:1055A00003F064FFEB6833445968FFF729FF0134C7
:1055B000E4E708B519B901F0E9FEFAF7B7FD01F023
:1055C000F5FEFAE70B4BC00010B540F002049868F6
:1055D00000222146043000F0DDFE48B90246214693
:1055E000054800F0D7FE18B904490548FFF7E1FF68
:1055F000406810BD9C080010B817010043FF000070
:10560000180701000A4B10B5044658689B68984279
:1056100007D0E100002241F00201043000F0BAFEA0
:1056200020B92046BDE81040FFF7CCBF406810BD50
:105630009C08001010B51446FFF738FF23681BB90B
:1056400002490348FFF7B5FF10BD00BF4EFF000041
:105650004804010007B56A46FFF7ECFF9DE8030028
:1056600011B903B05DF804FB01F04AFAF9E7000054
:1056700073B504460D46164600F08CFFC36943B16E
:10568000042229468DE8440020466A469847009B3C
:105690001BB103490348FFF78CFF02B070BD00BF88
:1056A0004EFF0000480401000EB403B503AA52F8EF
:1056B000041B019201F09AFEFAF738FD2DE9F04F34
:1056C00085B000AF07F1080204460D46FFF7EEFE75
:1056D000FB6823B12A4626492648FFF7E5FFB8684C
:1056E000002840D1204605F027FD0028F2D007F120
:1056F000080220461721FFF7D9FE391DB86803F0CC
:10570000E7FE83462846FBF728FAD7F80480594677
:1057100008F1010400EB040909F10E0323F007036B
:10572000ADEB030D6B464FEAD30A4FEACA06424679
:10573000304608F025FF2E23284608F83A30FBF7BC
:1057400011FA80462846FBF708FA344402464146DF
:10575000204608F015FF49463046FBF767F901225D
:105760001E21FFF7F7FE1437BD46BDE8F08F00BFDE
:1057700030FF00007405010008B50446FAF7A8FDE3
:1057800018B104490448FFF714FF224603490248B0
:10579000FFF78AFFDFFE0000DC060100EFFE0000DD
:1057A000014608B50148FFF704FF00BF34090100B6
:1057B000014608B50148FFF7FCFE00BFF8080100EC
:1057C000032837B505460C4607D1084601F03CF8DA
:1057D00000B30E24204603B030BDCA072ED54910B1
:1057E000082829D801A353F820F000BFD55700009E
:1057F0001D580000395800003958000011580000A9
:1058000039580000D557000019580000D55700003E
:105810000029DED01E24DDE70029DBDAB1F1404F9C
:1058200005D14FF0804002F081FA0446D2E74C42A5
:10583000640044F00104CDE7CC43F9E7062821D108
:1058400001F00703022B0CD08B071BD10B689A6960
:10585000164B9A4216D1486840B98B68C8680193C4
:105860000CE0CC082046FBF773F918B1400040F07B
:105870000104AFE701A92046FBF779F90199FBF78D
:1058800089F8F3E7204600F085FE436923B9082D27
:1058900009D10748FFF78CFF214628469847044660
:1058A000002897D1F3E70348F4E700BF358C0000E8
:1058B0007EFF000084FF00002DE9F04105460E4602
:1058C0001746984600F066FE04693CB143463A46E6
:1058D00031462846A446BDE8F04160470148FFF73D
:1058E00067FF00BF1FFF000000231A461946FFF79D
:1058F000E3BF0000F0B5174C0D46A16891B00091D0
:105900006168064604A80191A2606360FAF7FCFB97
:1059100030B1009B0598A360019B6360FAF706FC19
:105920002A46314602A83768FCF7DAFBB5FA85F259
:105930003946520902A8FEF761FEFFF7D5FF05467A
:10594000FAF7DAFB2846009BA360019B636011B065
:10595000F0BD00BF9C08001007B502AB43F8041D62
:1059600000220121FFF7A8FF03B05DF804FB30B46B
:1059700054681546003418BF0124A2EB8403083391
:105980000A462118286830BCFFF796BF10B50446B8
:1059900001F078FD38B100232046BDE810401A46DA
:1059A0001946FFF789BF204601F082FD28B9BDE8FE
:1059B00010400349034801F0F9BC204610BD00BF68
:1059C00056FF0000F80801002DE9FF411D4606467C
:1059D0000C46174600F0DEFD324B984208D12B46AC
:1059E0003A462146304601F023FF04B0BDE8F0817D
:1059F000D0F82880B8F1000F08D0062C21D130460D
:105A0000C0472860003018BF0120EEE7062C18D1EF
:105A100001AA19213046FFF749FD019B6BB901AA84
:105A20008A213046FFF706FE03940021012001AAD7
:105A3000FFF79DFF28600120D7E701AA41464046B5
:105A4000F6E7002CEBD1384600F0A4FD164904F02F
:105A5000D7FF01AA68B147213046FFF727FD019B18
:105A60007BB101AA21462046FFF781FF286020462E
:105A7000BBE79B213046FFF719FD019B0BB1039754
:105A8000D3E70A49384601F01AFD30B10849094800
:105A900001F08CFC28600220A7E73846FFF776FF6C
:105AA000F8E700BFD40B01003805010044080100ED
:105AB00074FF00000808010073B505460C4600F0AD
:105AC00069FD154A436A0646934222D063B134B950
:105AD000124A934203D01020FAF746FB0446736A39
